{"abi":[{"type":"constructor","inputs":[{"name":"_amountBet","type":"uint256","internalType":"uint256"},{"name":"_desc","type":"string","internalType":"string"},{"name":"_factory","type":"address","internalType":"address"}],"stateMutability":"nonpayable"},{"type":"function","name":"EBT","inputs":[],"outputs":[{"name":"","type":"address","internalType":"contract BetFactory"}],"stateMutability":"view"},{"type":"function","name":"amountBet","inputs":[],"outputs":[{"name":"","type":"uint256","internalType":"uint256"}],"stateMutability":"view"},{"type":"function","name":"desc","inputs":[],"outputs":[{"name":"","type":"string","internalType":"string"}],"stateMutability":"view"},{"type":"function","name":"hasBet","inputs":[{"name":"","type":"address","internalType":"address"}],"outputs":[{"name":"","type":"bool","internalType":"bool"}],"stateMutability":"view"},{"type":"function","name":"joinBet","inputs":[{"name":"_side","type":"bool","internalType":"bool"},{"name":"deadline","type":"uint256","internalType":"uint256"},{"name":"v","type":"uint8","internalType":"uint8"},{"name":"r","type":"bytes32","internalType":"bytes32"},{"name":"s","type":"bytes32","internalType":"bytes32"}],"outputs":[],"stateMutability":"nonpayable"},{"type":"function","name":"lengths","inputs":[],"outputs":[{"name":"","type":"uint256","internalType":"uint256"},{"name":"","type":"uint256","internalType":"uint256"}],"stateMutability":"view"},{"type":"function","name":"noBets","inputs":[{"name":"","type":"uint256","internalType":"uint256"}],"outputs":[{"name":"","type":"address","internalType":"address"}],"stateMutability":"view"},{"type":"function","name":"settleBet","inputs":[{"name":"_side","type":"bool","internalType":"bool"}],"outputs":[],"stateMutability":"nonpayable"},{"type":"function","name":"yesBets","inputs":[{"name":"","type":"uint256","internalType":"uint256"}],"outputs":[{"name":"","type":"address","internalType":"address"}],"stateMutability":"view"}],"bytecode":{"object":"0x60806040523480156200001157600080fd5b5060405162000d9e38038062000d9e83398101604081905262000034916200009f565b600080546001600160a01b0319166001600160a01b0383161790556001839055600262000062838262000220565b50505050620002ec565b634e487b7160e01b600052604160045260246000fd5b80516001600160a01b03811681146200009a57600080fd5b919050565b600080600060608486031215620000b557600080fd5b8351602080860151919450906001600160401b0380821115620000d757600080fd5b818701915087601f830112620000ec57600080fd5b8151818111156200010157620001016200006c565b604051601f8201601f19908116603f011681019083821181831017156200012c576200012c6200006c565b816040528281528a868487010111156200014557600080fd5b600093505b828410156200016957848401860151818501870152928501926200014a565b6000868483010152809750505050505050620001886040850162000082565b90509250925092565b600181811c90821680620001a657607f821691505b602082108103620001c757634e487b7160e01b600052602260045260246000fd5b50919050565b601f8211156200021b57600081815260208120601f850160051c81016020861015620001f65750805b601f850160051c820191505b81811015620002175782815560010162000202565b5050505b505050565b81516001600160401b038111156200023c576200023c6200006c565b62000254816200024d845462000191565b84620001cd565b602080601f8311600181146200028c5760008415620002735750858301515b600019600386901b1c1916600185901b17855562000217565b600085815260208120601f198616915b82811015620002bd578886015182559484019460019091019084016200029c565b5085821015620002dc5787850151600019600388901b60f8161c191681555b5050505050600190811b01905550565b610aa280620002fc6000396000f3fe608060405234801561001057600080fd5b50600436106100935760003560e01c80636d7bceb6116100665780636d7bceb614610111578063825e28991461013c578063c22760901461014f578063d06304e414610162578063dab1fa121461017557600080fd5b8063136f10161461009857806355f150f1146100d05780635e8e5d09146100e5578063621b71d2146100fa575b600080fd5b6100bb6100a6366004610872565b60056020526000908152604090205460ff1681565b60405190151581526020015b60405180910390f35b6100d8610190565b6040516100c79190610896565b6100f86100f33660046108f2565b61021e565b005b61010360015481565b6040519081526020016100c7565b600054610124906001600160a01b031681565b6040516001600160a01b0390911681526020016100c7565b61012461014a36600461094a565b610521565b6100f861015d366004610963565b61054b565b61012461017036600461094a565b61072e565b600354600454604080519283526020830191909152016100c7565b6002805461019d90610980565b80601f01602080910402602001604051908101604052809291908181526020018280546101c990610980565b80156102165780601f106101eb57610100808354040283529160200191610216565b820191906000526020600020905b8154815290600101906020018083116101f957829003601f168201915b505050505081565b3360009081526005602052604090205460ff16156102715760405162461bcd60e51b815260206004820152600b60248201526a105b1c9958591e4818995d60aa1b60448201526064015b60405180910390fd5b6001546000546040516370a0823160e01b81523360048201526001600160a01b03909116906370a0823190602401602060405180830381865afa1580156102bc573d6000803e3d6000fd5b505050506040513d601f19601f820116820180604052508101906102e091906109ba565b10156103215760405162461bcd60e51b815260206004820152601060248201526f4e6f7420656e6f7567682066756e647360801b6044820152606401610268565b8115801561032d575080155b801561033a575060ff8316155b156103635760015460005461035e916001600160a01b03909116903390309061073e565b610470565b60005460015460405163d505accf60e01b815233600482015230602482015260448101919091526064810186905260ff8516608482015260a4810184905260c481018390526001600160a01b039091169063d505accf9060e401600060405180830381600087803b1580156103d757600080fd5b505af11580156103eb573d6000803e3d6000fd5b50506000546001546040516323b872dd60e01b815233600482015230602482015260448101919091526001600160a01b0390911692506323b872dd91506064016020604051808303816000875af115801561044a573d6000803e3d6000fd5b505050506040513d601f19601f8201168201806040525081019061046e91906109d3565b505b84156104bd57600380546001810182556000919091527fc2575a0e9e593c00f959f8c92f12db2869c3395a3b0502d05e2516446f71f85b0180546001600160a01b03191633179055610500565b600480546001810182556000919091527f8a35acfbc15ff81a39ae7d344fd709f28e8600b4aa8c65c6b64bfe7fe36bd19b0180546001600160a01b031916331790555b5050336000908152600560205260409020805460ff19166001179055505050565b6003818154811061053157600080fd5b6000918252602090912001546001600160a01b0316905081565b60008054906101000a90046001600160a01b03166001600160a01b0316638da5cb5b6040518163ffffffff1660e01b8152600401602060405180830381865afa15801561059c573d6000803e3d6000fd5b505050506040513d601f19601f820116820180604052508101906105c091906109f0565b6001600160a01b0316336001600160a01b0316146106085760405162461bcd60e51b8152602060048201526005602482015264042c2eae8d60db1b6044820152606401610268565b600080546040516370a0823160e01b81523060048201526001600160a01b03909116906370a0823190602401602060405180830381865afa158015610651573d6000803e3d6000fd5b505050506040513d601f19601f8201168201806040525081019061067591906109ba565b905081156106e857600354600061068c8284610a0d565b905060005b828110156106e1576106cf600382815481106106af576106af610a2f565b600091825260208220015490546001600160a01b039081169116846107d3565b806106d981610a45565b915050610691565b5050505050565b60045460006106f78284610a0d565b905060005b6004548110156106e15761071c600482815481106106af576106af610a2f565b8061072681610a45565b9150506106fc565b6004818154811061053157600080fd5b60006040516323b872dd60e01b81526001600160a01b03851660048201526001600160a01b03841660248201528260448201526020600060648360008a5af13d15601f3d11600160005114161716915050806106e15760405162461bcd60e51b81526020600482015260146024820152731514905394d1915497d19493d357d1905253115160621b6044820152606401610268565b600060405163a9059cbb60e01b81526001600160a01b0384166004820152826024820152602060006044836000895af13d15601f3d11600160005114161716915050806108545760405162461bcd60e51b815260206004820152600f60248201526e1514905394d1915497d19052531151608a1b6044820152606401610268565b50505050565b6001600160a01b038116811461086f57600080fd5b50565b60006020828403121561088457600080fd5b813561088f8161085a565b9392505050565b600060208083528351808285015260005b818110156108c3578581018301518582016040015282016108a7565b506000604082860101526040601f19601f8301168501019250505092915050565b801515811461086f57600080fd5b600080600080600060a0868803121561090a57600080fd5b8535610915816108e4565b945060208601359350604086013560ff8116811461093257600080fd5b94979396509394606081013594506080013592915050565b60006020828403121561095c57600080fd5b5035919050565b60006020828403121561097557600080fd5b813561088f816108e4565b600181811c9082168061099457607f821691505b6020821081036109b457634e487b7160e01b600052602260045260246000fd5b50919050565b6000602082840312156109cc57600080fd5b5051919050565b6000602082840312156109e557600080fd5b815161088f816108e4565b600060208284031215610a0257600080fd5b815161088f8161085a565b600082610a2a57634e487b7160e01b600052601260045260246000fd5b500490565b634e487b7160e01b600052603260045260246000fd5b600060018201610a6557634e487b7160e01b600052601160045260246000fd5b506001019056fea2646970667358221220880273a929cde2feac975667c5bcfa6581a237e26d533dfc85dec459f25d81a664736f6c63430008150033","linkReferences":{}},"methodIdentifiers":{"EBT()":"6d7bceb6","amountBet()":"621b71d2","desc()":"55f150f1","hasBet(address)":"136f1016","joinBet(bool,uint256,uint8,bytes32,bytes32)":"5e8e5d09","lengths()":"dab1fa12","noBets(uint256)":"d06304e4","settleBet(bool)":"c2276090","yesBets(uint256)":"825e2899"},"id":48}