{"abi":[{"type":"constructor","inputs":[],"stateMutability":"nonpayable"},{"type":"function","name":"DOMAIN_SEPARATOR","inputs":[],"outputs":[{"name":"","type":"bytes32","internalType":"bytes32"}],"stateMutability":"view"},{"type":"function","name":"allowance","inputs":[{"name":"owner","type":"address","internalType":"address"},{"name":"spender","type":"address","internalType":"address"}],"outputs":[{"name":"","type":"uint256","internalType":"uint256"}],"stateMutability":"view"},{"type":"function","name":"approve","inputs":[{"name":"spender","type":"address","internalType":"address"},{"name":"value","type":"uint256","internalType":"uint256"}],"outputs":[{"name":"","type":"bool","internalType":"bool"}],"stateMutability":"nonpayable"},{"type":"function","name":"balanceOf","inputs":[{"name":"account","type":"address","internalType":"address"}],"outputs":[{"name":"","type":"uint256","internalType":"uint256"}],"stateMutability":"view"},{"type":"function","name":"createBet","inputs":[{"name":"amountBet","type":"uint256","internalType":"uint256"},{"name":"desc","type":"string","internalType":"string"},{"name":"salt","type":"bytes32","internalType":"bytes32"}],"outputs":[{"name":"","type":"address","internalType":"address"}],"stateMutability":"nonpayable"},{"type":"function","name":"decimals","inputs":[],"outputs":[{"name":"","type":"uint8","internalType":"uint8"}],"stateMutability":"view"},{"type":"function","name":"eip712Domain","inputs":[],"outputs":[{"name":"fields","type":"bytes1","internalType":"bytes1"},{"name":"name","type":"string","internalType":"string"},{"name":"version","type":"string","internalType":"string"},{"name":"chainId","type":"uint256","internalType":"uint256"},{"name":"verifyingContract","type":"address","internalType":"address"},{"name":"salt","type":"bytes32","internalType":"bytes32"},{"name":"extensions","type":"uint256[]","internalType":"uint256[]"}],"stateMutability":"view"},{"type":"function","name":"getDeployed","inputs":[{"name":"salt","type":"bytes32","internalType":"bytes32"}],"outputs":[{"name":"","type":"address","internalType":"address"}],"stateMutability":"view"},{"type":"function","name":"mint","inputs":[{"name":"to","type":"address","internalType":"address"},{"name":"amount","type":"uint256","internalType":"uint256"}],"outputs":[],"stateMutability":"nonpayable"},{"type":"function","name":"name","inputs":[],"outputs":[{"name":"","type":"string","internalType":"string"}],"stateMutability":"view"},{"type":"function","name":"nonces","inputs":[{"name":"owner","type":"address","internalType":"address"}],"outputs":[{"name":"","type":"uint256","internalType":"uint256"}],"stateMutability":"view"},{"type":"function","name":"owner","inputs":[],"outputs":[{"name":"","type":"address","internalType":"address"}],"stateMutability":"view"},{"type":"function","name":"permit","inputs":[{"name":"owner","type":"address","internalType":"address"},{"name":"spender","type":"address","internalType":"address"},{"name":"value","type":"uint256","internalType":"uint256"},{"name":"deadline","type":"uint256","internalType":"uint256"},{"name":"v","type":"uint8","internalType":"uint8"},{"name":"r","type":"bytes32","internalType":"bytes32"},{"name":"s","type":"bytes32","internalType":"bytes32"}],"outputs":[],"stateMutability":"nonpayable"},{"type":"function","name":"symbol","inputs":[],"outputs":[{"name":"","type":"string","internalType":"string"}],"stateMutability":"view"},{"type":"function","name":"totalSupply","inputs":[],"outputs":[{"name":"","type":"uint256","internalType":"uint256"}],"stateMutability":"view"},{"type":"function","name":"transfer","inputs":[{"name":"to","type":"address","internalType":"address"},{"name":"value","type":"uint256","internalType":"uint256"}],"outputs":[{"name":"","type":"bool","internalType":"bool"}],"stateMutability":"nonpayable"},{"type":"function","name":"transferFrom","inputs":[{"name":"from","type":"address","internalType":"address"},{"name":"to","type":"address","internalType":"address"},{"name":"value","type":"uint256","internalType":"uint256"}],"outputs":[{"name":"","type":"bool","internalType":"bool"}],"stateMutability":"nonpayable"},{"type":"function","name":"transferOwnership","inputs":[{"name":"newOwner","type":"address","internalType":"address"}],"outputs":[],"stateMutability":"nonpayable"},{"type":"event","name":"Approval","inputs":[{"name":"owner","type":"address","indexed":true,"internalType":"address"},{"name":"spender","type":"address","indexed":true,"internalType":"address"},{"name":"value","type":"uint256","indexed":false,"internalType":"uint256"}],"anonymous":false},{"type":"event","name":"EIP712DomainChanged","inputs":[],"anonymous":false},{"type":"event","name":"OwnershipTransferred","inputs":[{"name":"user","type":"address","indexed":true,"internalType":"address"},{"name":"newOwner","type":"address","indexed":true,"internalType":"address"}],"anonymous":false},{"type":"event","name":"Transfer","inputs":[{"name":"from","type":"address","indexed":true,"internalType":"address"},{"name":"to","type":"address","indexed":true,"internalType":"address"},{"name":"value","type":"uint256","indexed":false,"internalType":"uint256"}],"anonymous":false},{"type":"error","name":"ECDSAInvalidSignature","inputs":[]},{"type":"error","name":"ECDSAInvalidSignatureLength","inputs":[{"name":"length","type":"uint256","internalType":"uint256"}]},{"type":"error","name":"ECDSAInvalidSignatureS","inputs":[{"name":"s","type":"bytes32","internalType":"bytes32"}]},{"type":"error","name":"ERC20InsufficientAllowance","inputs":[{"name":"spender","type":"address","internalType":"address"},{"name":"allowance","type":"uint256","internalType":"uint256"},{"name":"needed","type":"uint256","internalType":"uint256"}]},{"type":"error","name":"ERC20InsufficientBalance","inputs":[{"name":"sender","type":"address","internalType":"address"},{"name":"balance","type":"uint256","internalType":"uint256"},{"name":"needed","type":"uint256","internalType":"uint256"}]},{"type":"error","name":"ERC20InvalidApprover","inputs":[{"name":"approver","type":"address","internalType":"address"}]},{"type":"error","name":"ERC20InvalidReceiver","inputs":[{"name":"receiver","type":"address","internalType":"address"}]},{"type":"error","name":"ERC20InvalidSender","inputs":[{"name":"sender","type":"address","internalType":"address"}]},{"type":"error","name":"ERC20InvalidSpender","inputs":[{"name":"spender","type":"address","internalType":"address"}]},{"type":"error","name":"ERC2612ExpiredSignature","inputs":[{"name":"deadline","type":"uint256","internalType":"uint256"}]},{"type":"error","name":"ERC2612InvalidSigner","inputs":[{"name":"signer","type":"address","internalType":"address"},{"name":"owner","type":"address","internalType":"address"}]},{"type":"error","name":"InvalidAccountNonce","inputs":[{"name":"account","type":"address","internalType":"address"},{"name":"currentNonce","type":"uint256","internalType":"uint256"}]},{"type":"error","name":"InvalidShortString","inputs":[]},{"type":"error","name":"StringTooLong","inputs":[{"name":"str","type":"string","internalType":"string"}]}],"bytecode":{"object":"0x6101606040523480156200001257600080fd5b50604080518082018252600f8082526e22b9ba34a6b0ba32b9902a37b5b2b760891b60208084018290528451808601865260018152603160f81b818301528551808701875293845283820192909252845180860186526002815261115560f21b91810191909152600080546001600160a01b031916339081178255955194958695939493909182917f8be0079c531659141344cd1fd0a4f28419497f9722a3daafe3b4186f6b6457e0908290a3506004620000ce8382620002c8565b506005620000dd8282620002c8565b50620000ef915083905060066200019e565b61012052620001008160076200019e565b61014052815160208084019190912060e052815190820120610100524660a0526200018e60e05161010051604080517f8b73c3c69bb8fe3d512ecc4cf759cc79239f7b179b0ffacaa9a75d522b39400f60208201529081019290925260608201524660808201523060a082015260009060c00160405160208183030381529060405280519060200120905090565b60805250503060c0525062000409565b6000602083511015620001be57620001b683620001d7565b9050620001d1565b81620001cb8482620002c8565b5060ff90505b92915050565b600080829050601f815111156200020e578260405163305a27a960e01b815260040162000205919062000394565b60405180910390fd5b80516200021b82620003e4565b179392505050565b634e487b7160e01b600052604160045260246000fd5b600181811c908216806200024e57607f821691505b6020821081036200026f57634e487b7160e01b600052602260045260246000fd5b50919050565b601f821115620002c357600081815260208120601f850160051c810160208610156200029e5750805b601f850160051c820191505b81811015620002bf57828155600101620002aa565b5050505b505050565b81516001600160401b03811115620002e457620002e462000223565b620002fc81620002f5845462000239565b8462000275565b602080601f8311600181146200033457600084156200031b5750858301515b600019600386901b1c1916600185901b178555620002bf565b600085815260208120601f198616915b82811015620003655788860151825594840194600190910190840162000344565b5085821015620003845787850151600019600388901b60f8161c191681555b5050505050600190811b01905550565b600060208083528351808285015260005b81811015620003c357858101830151858201604001528201620003a5565b506000604082860101526040601f19601f8301168501019250505092915050565b805160208083015191908110156200026f5760001960209190910360031b1b16919050565b60805160a05160c05160e0516101005161012051610140516123f46200046460003960006109ff015260006109d00152600061093d015260006109150152600061086d01526000610898015260006108c301526123f46000f3fe60806040523480156200001157600080fd5b50600436106200012d5760003560e01c806384b0196e11620000af578063a9059cbb116200007a578063a9059cbb1462000289578063d505accf14620002a0578063dd62ed3e14620002b7578063df20e25214620002f3578063f2fde38b146200030a57600080fd5b806384b0196e146200021c5780638da5cb5b146200023b57806395d89b41146200026857806399ce0dc0146200027257600080fd5b8063313ce56711620000fc578063313ce56714620001a65780633644e51514620001b657806340c10f1914620001c057806370a0823114620001d95780637ecebe00146200020557600080fd5b806306fdde031462000132578063095ea7b3146200015457806318160ddd146200017c57806323b872dd146200018f575b600080fd5b6200013c62000321565b6040516200014b919062001218565b60405180910390f35b6200016b6200016536600462001251565b620003bb565b60405190151581526020016200014b565b6003545b6040519081526020016200014b565b6200016b620001a03660046200127e565b620003d7565b604051601281526020016200014b565b62000180620003ff565b620001d7620001d136600462001251565b62000410565b005b62000180620001ea366004620012bf565b6001600160a01b031660009081526001602052604090205490565b6200018062000216366004620012bf565b6200046f565b620002266200048e565b6040516200014b9796959493929190620012dd565b6000546200024f906001600160a01b031681565b6040516001600160a01b0390911681526020016200014b565b6200013c620004d8565b6200024f620002833660046200138f565b620004e9565b6200016b6200029a36600462001251565b6200056c565b620001d7620002b13660046200145d565b6200057c565b62000180620002c8366004620014d6565b6001600160a01b03918216600090815260026020908152604080832093909416825291909152205490565b6200024f620003043660046200150e565b620006c1565b620001d76200031b366004620012bf565b620006ce565b606060048054620003329062001528565b80601f0160208091040260200160405190810160405280929190818152602001828054620003609062001528565b8015620003b15780601f106200038557610100808354040283529160200191620003b1565b820191906000526020600020905b8154815290600101906020018083116200039357829003601f168201915b5050505050905090565b600033620003cb81858562000764565b60019150505b92915050565b600033620003e785828562000778565b620003f4858585620007fb565b506001949350505050565b60006200040b62000860565b905090565b6000546001600160a01b031633146200045f5760405162461bcd60e51b815260206004820152600c60248201526b15539055551213d49256915160a21b60448201526064015b60405180910390fd5b6200046b82826200098e565b5050565b6001600160a01b038116600090815260086020526040812054620003d1565b600060608060008060006060620004a4620009c8565b620004ae620009f7565b60408051600080825260208201909252600f60f81b9b939a50919850469750309650945092509050565b606060058054620003329062001528565b6000806200056383604051806020016200050390620011b6565b601f1982820381018352601f9091011660408190526200052c9089908990309060200162001564565b60408051601f19818403018152908290526200054c929160200162001597565b604051602081830303815290604052600062000a26565b95945050505050565b600033620003cb818585620007fb565b83421115620005a25760405163313c898160e11b81526004810185905260240162000456565b60007f6e71edae12b1b97f4d1f60370fef10105fa2faae0126114a169c64845d6126c9888888620005f08c6001600160a01b0316600090815260086020526040902080546001810190915590565b6040805160208101969096526001600160a01b0394851690860152929091166060840152608083015260a082015260c0810186905260e00160405160208183030381529060405280519060200120905060006200064d8262000b87565b905060006200065f8287878762000bb7565b9050896001600160a01b0316816001600160a01b031614620006a8576040516325c0072360e11b81526001600160a01b0380831660048301528b16602482015260440162000456565b620006b58a8a8a62000764565b50505050505050505050565b6000620003d18262000be9565b6000546001600160a01b03163314620007195760405162461bcd60e51b815260206004820152600c60248201526b15539055551213d49256915160a21b604482015260640162000456565b600080546001600160a01b0319166001600160a01b0383169081178255604051909133917f8be0079c531659141344cd1fd0a4f28419497f9722a3daafe3b4186f6b6457e09190a350565b62000773838383600162000bf7565b505050565b6001600160a01b038381166000908152600260209081526040808320938616835292905220546000198114620007f55781811015620007e457604051637dc7a0d960e11b81526001600160a01b0384166004820152602481018290526044810183905260640162000456565b620007f58484848403600062000bf7565b50505050565b6001600160a01b0383166200082757604051634b637e8f60e11b81526000600482015260240162000456565b6001600160a01b038216620008535760405163ec442f0560e01b81526000600482015260240162000456565b6200077383838362000cd2565b6000306001600160a01b037f000000000000000000000000000000000000000000000000000000000000000016148015620008ba57507f000000000000000000000000000000000000000000000000000000000000000046145b15620008e557507f000000000000000000000000000000000000000000000000000000000000000090565b6200040b604080517f8b73c3c69bb8fe3d512ecc4cf759cc79239f7b179b0ffacaa9a75d522b39400f60208201527f0000000000000000000000000000000000000000000000000000000000000000918101919091527f000000000000000000000000000000000000000000000000000000000000000060608201524660808201523060a082015260009060c00160405160208183030381529060405280519060200120905090565b6001600160a01b038216620009ba5760405163ec442f0560e01b81526000600482015260240162000456565b6200046b6000838362000cd2565b60606200040b7f0000000000000000000000000000000000000000000000000000000000000000600662000e05565b60606200040b7f0000000000000000000000000000000000000000000000000000000000000000600762000e05565b6000806040518060400160405280601081526020016f67363d3d37363d34f03d5260086018f360801b81525090506000858251602084016000f590506001600160a01b03811662000aae5760405162461bcd60e51b81526020600482015260116024820152701111541313d65351539517d19052531151607a1b604482015260640162000456565b62000ab98662000be9565b92506000816001600160a01b0316858760405162000ad89190620015ca565b60006040518083038185875af1925050503d806000811462000b17576040519150601f19603f3d011682016040523d82523d6000602084013e62000b1c565b606091505b5050905080801562000b3757506001600160a01b0384163b15155b62000b7d5760405162461bcd60e51b815260206004820152601560248201527412539255125053125690551253d397d19052531151605a1b604482015260640162000456565b5050509392505050565b6000620003d162000b9762000860565b8360405161190160f01b8152600281019290925260228201526042902090565b60008060008062000bcb8888888862000ebd565b92509250925062000bdd828262000f91565b50909695505050505050565b6000620003d182306200105c565b6001600160a01b03841662000c235760405163e602df0560e01b81526000600482015260240162000456565b6001600160a01b03831662000c4f57604051634a1406b160e11b81526000600482015260240162000456565b6001600160a01b0380851660009081526002602090815260408083209387168352929052208290558015620007f557826001600160a01b0316846001600160a01b03167f8c5be1e5ebec7d5bd14f71427d1e84f3dd0314c0f7b2291e5b200ac8c7c3b9258460405162000cc491815260200190565b60405180910390a350505050565b6001600160a01b03831662000d0157806003600082825462000cf59190620015e8565b9091555062000d759050565b6001600160a01b0383166000908152600160205260409020548181101562000d565760405163391434e360e21b81526001600160a01b0385166004820152602481018290526044810183905260640162000456565b6001600160a01b03841660009081526001602052604090209082900390555b6001600160a01b03821662000d935760038054829003905562000db2565b6001600160a01b03821660009081526001602052604090208054820190555b816001600160a01b0316836001600160a01b03167fddf252ad1be2c89b69c2b068fc378daa952ba7f163c4a11628f55a4df523b3ef8360405162000df891815260200190565b60405180910390a3505050565b606060ff831462000e235762000e1b836200114c565b9050620003d1565b81805462000e319062001528565b80601f016020809104026020016040519081016040528092919081815260200182805462000e5f9062001528565b801562000eb05780601f1062000e845761010080835404028352916020019162000eb0565b820191906000526020600020905b81548152906001019060200180831162000e9257829003601f168201915b50505050509050620003d1565b600080807f7fffffffffffffffffffffffffffffff5d576e7357a4501ddfe92f46681b20a084111562000efa575060009150600390508262000f87565b604080516000808252602082018084528a905260ff891692820192909252606081018790526080810186905260019060a0016020604051602081039080840390855afa15801562000f4f573d6000803e3d6000fd5b5050604051601f1901519150506001600160a01b03811662000f7d5750600092506001915082905062000f87565b9250600091508190505b9450945094915050565b600082600381111562000fa85762000fa86200160a565b0362000fb2575050565b600182600381111562000fc95762000fc96200160a565b0362000fe85760405163f645eedf60e01b815260040160405180910390fd5b600282600381111562000fff5762000fff6200160a565b03620010225760405163fce698f760e01b81526004810182905260240162000456565b60038260038111156200103957620010396200160a565b036200046b576040516335e2f38360e21b81526004810182905260240162000456565b604080518082018252601081526f67363d3d37363d34f03d5260086018f360801b60209182015290516001600160f81b0319918101919091526bffffffffffffffffffffffff19606083901b166021820152603581018390527f21c35dbe1b344a2488cf3321d6ce542f8e9f305544ff09e4993a62319a497c1f6055820152600090819062001102906075015b6040516020818303038152906040528051906020012090565b6040516135a560f21b60208201526bffffffffffffffffffffffff19606083901b166022820152600160f81b60368201529091506200114490603701620010e9565b949350505050565b606060006200115b836200118d565b604080516020808252818301909252919250600091906020820181803683375050509182525060208101929092525090565b600060ff8216601f811115620003d157604051632cd44ac360e21b815260040160405180910390fd5b610d9e806200162183390190565b60005b83811015620011e1578181015183820152602001620011c7565b50506000910152565b6000815180845262001204816020860160208601620011c4565b601f01601f19169290920160200192915050565b6020815260006200122d6020830184620011ea565b9392505050565b80356001600160a01b03811681146200124c57600080fd5b919050565b600080604083850312156200126557600080fd5b620012708362001234565b946020939093013593505050565b6000806000606084860312156200129457600080fd5b6200129f8462001234565b9250620012af6020850162001234565b9150604084013590509250925092565b600060208284031215620012d257600080fd5b6200122d8262001234565b60ff60f81b881681526000602060e081840152620012ff60e084018a620011ea565b838103604085015262001313818a620011ea565b606085018990526001600160a01b038816608086015260a0850187905284810360c0860152855180825283870192509083019060005b81811015620013675783518352928401929184019160010162001349565b50909c9b505050505050505050505050565b634e487b7160e01b600052604160045260246000fd5b600080600060608486031215620013a557600080fd5b83359250602084013567ffffffffffffffff80821115620013c557600080fd5b818601915086601f830112620013da57600080fd5b813581811115620013ef57620013ef62001379565b604051601f8201601f19908116603f011681019083821181831017156200141a576200141a62001379565b816040528281528960208487010111156200143457600080fd5b826020860160208301376000602084830101528096505050505050604084013590509250925092565b600080600080600080600060e0888a0312156200147957600080fd5b620014848862001234565b9650620014946020890162001234565b95506040880135945060608801359350608088013560ff81168114620014b957600080fd5b9699959850939692959460a0840135945060c09093013592915050565b60008060408385031215620014ea57600080fd5b620014f58362001234565b9150620015056020840162001234565b90509250929050565b6000602082840312156200152157600080fd5b5035919050565b600181811c908216806200153d57607f821691505b6020821081036200155e57634e487b7160e01b600052602260045260246000fd5b50919050565b8381526060602082015260006200157f6060830185620011ea565b905060018060a01b0383166040830152949350505050565b60008351620015ab818460208801620011c4565b835190830190620015c1818360208801620011c4565b01949350505050565b60008251620015de818460208701620011c4565b9190910192915050565b80820180821115620003d157634e487b7160e01b600052601160045260246000fd5b634e487b7160e01b600052602160045260246000fdfe60806040523480156200001157600080fd5b5060405162000d9e38038062000d9e83398101604081905262000034916200009f565b600080546001600160a01b0319166001600160a01b0383161790556001839055600262000062838262000220565b50505050620002ec565b634e487b7160e01b600052604160045260246000fd5b80516001600160a01b03811681146200009a57600080fd5b919050565b600080600060608486031215620000b557600080fd5b8351602080860151919450906001600160401b0380821115620000d757600080fd5b818701915087601f830112620000ec57600080fd5b8151818111156200010157620001016200006c565b604051601f8201601f19908116603f011681019083821181831017156200012c576200012c6200006c565b816040528281528a868487010111156200014557600080fd5b600093505b828410156200016957848401860151818501870152928501926200014a565b6000868483010152809750505050505050620001886040850162000082565b90509250925092565b600181811c90821680620001a657607f821691505b602082108103620001c757634e487b7160e01b600052602260045260246000fd5b50919050565b601f8211156200021b57600081815260208120601f850160051c81016020861015620001f65750805b601f850160051c820191505b81811015620002175782815560010162000202565b5050505b505050565b81516001600160401b038111156200023c576200023c6200006c565b62000254816200024d845462000191565b84620001cd565b602080601f8311600181146200028c5760008415620002735750858301515b600019600386901b1c1916600185901b17855562000217565b600085815260208120601f198616915b82811015620002bd578886015182559484019460019091019084016200029c565b5085821015620002dc5787850151600019600388901b60f8161c191681555b5050505050600190811b01905550565b610aa280620002fc6000396000f3fe608060405234801561001057600080fd5b50600436106100935760003560e01c80636d7bceb6116100665780636d7bceb614610111578063825e28991461013c578063c22760901461014f578063d06304e414610162578063dab1fa121461017557600080fd5b8063136f10161461009857806355f150f1146100d05780635e8e5d09146100e5578063621b71d2146100fa575b600080fd5b6100bb6100a6366004610872565b60056020526000908152604090205460ff1681565b60405190151581526020015b60405180910390f35b6100d8610190565b6040516100c79190610896565b6100f86100f33660046108f2565b61021e565b005b61010360015481565b6040519081526020016100c7565b600054610124906001600160a01b031681565b6040516001600160a01b0390911681526020016100c7565b61012461014a36600461094a565b610521565b6100f861015d366004610963565b61054b565b61012461017036600461094a565b61072e565b600354600454604080519283526020830191909152016100c7565b6002805461019d90610980565b80601f01602080910402602001604051908101604052809291908181526020018280546101c990610980565b80156102165780601f106101eb57610100808354040283529160200191610216565b820191906000526020600020905b8154815290600101906020018083116101f957829003601f168201915b505050505081565b3360009081526005602052604090205460ff16156102715760405162461bcd60e51b815260206004820152600b60248201526a105b1c9958591e4818995d60aa1b60448201526064015b60405180910390fd5b6001546000546040516370a0823160e01b81523360048201526001600160a01b03909116906370a0823190602401602060405180830381865afa1580156102bc573d6000803e3d6000fd5b505050506040513d601f19601f820116820180604052508101906102e091906109ba565b10156103215760405162461bcd60e51b815260206004820152601060248201526f4e6f7420656e6f7567682066756e647360801b6044820152606401610268565b8115801561032d575080155b801561033a575060ff8316155b156103635760015460005461035e916001600160a01b03909116903390309061073e565b610470565b60005460015460405163d505accf60e01b815233600482015230602482015260448101919091526064810186905260ff8516608482015260a4810184905260c481018390526001600160a01b039091169063d505accf9060e401600060405180830381600087803b1580156103d757600080fd5b505af11580156103eb573d6000803e3d6000fd5b50506000546001546040516323b872dd60e01b815233600482015230602482015260448101919091526001600160a01b0390911692506323b872dd91506064016020604051808303816000875af115801561044a573d6000803e3d6000fd5b505050506040513d601f19601f8201168201806040525081019061046e91906109d3565b505b84156104bd57600380546001810182556000919091527fc2575a0e9e593c00f959f8c92f12db2869c3395a3b0502d05e2516446f71f85b0180546001600160a01b03191633179055610500565b600480546001810182556000919091527f8a35acfbc15ff81a39ae7d344fd709f28e8600b4aa8c65c6b64bfe7fe36bd19b0180546001600160a01b031916331790555b5050336000908152600560205260409020805460ff19166001179055505050565b6003818154811061053157600080fd5b6000918252602090912001546001600160a01b0316905081565b60008054906101000a90046001600160a01b03166001600160a01b0316638da5cb5b6040518163ffffffff1660e01b8152600401602060405180830381865afa15801561059c573d6000803e3d6000fd5b505050506040513d601f19601f820116820180604052508101906105c091906109f0565b6001600160a01b0316336001600160a01b0316146106085760405162461bcd60e51b8152602060048201526005602482015264042c2eae8d60db1b6044820152606401610268565b600080546040516370a0823160e01b81523060048201526001600160a01b03909116906370a0823190602401602060405180830381865afa158015610651573d6000803e3d6000fd5b505050506040513d601f19601f8201168201806040525081019061067591906109ba565b905081156106e857600354600061068c8284610a0d565b905060005b828110156106e1576106cf600382815481106106af576106af610a2f565b600091825260208220015490546001600160a01b039081169116846107d3565b806106d981610a45565b915050610691565b5050505050565b60045460006106f78284610a0d565b905060005b6004548110156106e15761071c600482815481106106af576106af610a2f565b8061072681610a45565b9150506106fc565b6004818154811061053157600080fd5b60006040516323b872dd60e01b81526001600160a01b03851660048201526001600160a01b03841660248201528260448201526020600060648360008a5af13d15601f3d11600160005114161716915050806106e15760405162461bcd60e51b81526020600482015260146024820152731514905394d1915497d19493d357d1905253115160621b6044820152606401610268565b600060405163a9059cbb60e01b81526001600160a01b0384166004820152826024820152602060006044836000895af13d15601f3d11600160005114161716915050806108545760405162461bcd60e51b815260206004820152600f60248201526e1514905394d1915497d19052531151608a1b6044820152606401610268565b50505050565b6001600160a01b038116811461086f57600080fd5b50565b60006020828403121561088457600080fd5b813561088f8161085a565b9392505050565b600060208083528351808285015260005b818110156108c3578581018301518582016040015282016108a7565b506000604082860101526040601f19601f8301168501019250505092915050565b801515811461086f57600080fd5b600080600080600060a0868803121561090a57600080fd5b8535610915816108e4565b945060208601359350604086013560ff8116811461093257600080fd5b94979396509394606081013594506080013592915050565b60006020828403121561095c57600080fd5b5035919050565b60006020828403121561097557600080fd5b813561088f816108e4565b600181811c9082168061099457607f821691505b6020821081036109b457634e487b7160e01b600052602260045260246000fd5b50919050565b6000602082840312156109cc57600080fd5b5051919050565b6000602082840312156109e557600080fd5b815161088f816108e4565b600060208284031215610a0257600080fd5b815161088f8161085a565b600082610a2a57634e487b7160e01b600052601260045260246000fd5b500490565b634e487b7160e01b600052603260045260246000fd5b600060018201610a6557634e487b7160e01b600052601160045260246000fd5b506001019056fea2646970667358221220880273a929cde2feac975667c5bcfa6581a237e26d533dfc85dec459f25d81a664736f6c63430008150033a2646970667358221220abbf63f5f7c35f466d5ba022b5905a4f8dd1a6a0250a8298d8ea5b7761d1201964736f6c63430008150033","linkReferences":{}},"methodIdentifiers":{"DOMAIN_SEPARATOR()":"3644e515","allowance(address,address)":"dd62ed3e","approve(address,uint256)":"095ea7b3","balanceOf(address)":"70a08231","createBet(uint256,string,bytes32)":"99ce0dc0","decimals()":"313ce567","eip712Domain()":"84b0196e","getDeployed(bytes32)":"df20e252","mint(address,uint256)":"40c10f19","name()":"06fdde03","nonces(address)":"7ecebe00","owner()":"8da5cb5b","permit(address,address,uint256,uint256,uint8,bytes32,bytes32)":"d505accf","symbol()":"95d89b41","totalSupply()":"18160ddd","transfer(address,uint256)":"a9059cbb","transferFrom(address,address,uint256)":"23b872dd","transferOwnership(address)":"f2fde38b"},"id":49}